:020000040800F2
:10000000005000200916000859160008591600086B
:10001000591600085916000859160008000000007B
:100020000000000000000000000000005916000859
:10003000591600080000000059160008410D00087C
:1000400059160008591600085916000859160008D4
:100050005916000859160008A1070008D107000822
:10006000FD0700082908000859160008591600085D
:1000700059160008591600085916000859160008A4
:100080005916000859160008591600085916000894
:100090005916000859160008591600085916000884
:1000A0005916000859160008591600085916000874
:1000B0005916000859160008591600085916000864
:1000C0005916000859160008591600085916000854
:1000D0005916000859160008591600085916000844
:1000E00059160008591600080000000059160008AB
:1000F0005916000859160008591600085916000824
:100100005916000859160008591600085916000813
:100110005916000859160008591600085916000803
:1001200059160008591600085916000859160008F3
:1001300010B5054C237833B9044B13B10448AFF321
:1001400000800123237010BD000400200000000087
:10015000A416000808B5034B1BB103490348AFF3CD
:10016000008008BD0000000004040020A416000860
:1001700080F0004002E000BF81F0004142001FBF5C
:100180005FEA410392EA030F7FEA226C7FEA236C65
:100190006AD04FEA1262D2EB1363C1BFD21841405A
:1001A00048404140B8BF5B42192B88BF704710F0F0
:1001B000004F40F4000020F07F4018BF404211F093
:1001C000004F41F4000121F07F4118BF494292EAFB
:1001D000030F3FD0A2F1010241FA03FC10EB0C0027
:1001E000C3F1200301FA03F100F0004302D54942B4
:1001F00060EB4000B0F5000F13D3B0F1807F06D361
:1002000040084FEA310102F10102FE2A51D2B1F158
:10021000004F40EBC25008BF20F0010040EA03004D
:100220007047490040EB0000013A28BFB0F5000FCD
:10023000EDD2B0FA80FCACF1080CB2EB0C0200FA83
:100240000CF0AABF00EBC25052421843BCBFD040D2
:100250001843704792F0000F81F4000106BF80F44C
:1002600000000132013BB5E74FEA41037FEA226C0F
:1002700018BF7FEA236C21D092EA030F04D092F0DA
:10028000000F08BF0846704790EA010F1CBF00200E
:10029000704712F07F4F04D1400028BF40F000406B
:1002A000704712F100723CBF00F50000704700F08B
:1002B000004343F0FE4040F4000070477FEA2262B2
:1002C00016BF08467FEA23630146420206BF5FEA83
:1002D000412390EA010F40F4800070474FF0000383
:1002E00004E000BF10F0004348BF40425FEA000C4A
:1002F00008BF704743F0964301464FF000001CE0F2
:1003000050EA010208BF70474FF000030AE000BF47
:1003100050EA010208BF704711F0004302D5404285
:1003200061EB41015FEA010C02BF844601460020F7
:1003300043F0B64308BFA3F18053A3F50003BCFA12
:100340008CF2083AA3EBC25310DB01FA02FC6344BF
:1003500000FA02FCC2F12002BCF1004F20FA02F2C6
:1003600043EB020008BF20F00100704702F12002B9
:1003700001FA02FCC2F1200250EA4C0021FA02F21A
:1003800043EB020008BF20EADC7070474FF0FF0C1F
:100390001CEAD0521EBF1CEAD15392EA0C0F93EA1A
:1003A0000C0F6FD01A4480EA010C400218BF5FEABC
:1003B00041211ED04FF0006343EA501043EA51112F
:1003C000A0FB01310CF00040B1F5000F3EBF490029
:1003D00041EAD3715B0040EA010062F17F02FD2A2D
:1003E0001DD8B3F1004F40EBC25008BF20F0010010
:1003F000704790F0000F0CF0004C08BF49024CEA27
:10040000502040EA51207F3AC2BFD2F1FF0340EAB8
:10041000C250704740F400004FF00003013A5DDC29
:1004200012F1190FDCBF00F000407047C2F100026A
:10043000410021FA02F1C2F1200200FA02FC5FEA57
:10044000310040F1000053EA4C0308BF20EADC70A1
:10045000704792F0000F00F0004C02BF400010F413
:10046000000F013AF9D040EA0C0093F0000F01F0C0
:10047000004C02BF490011F4000F013BF9D041EAE2
:100480000C018FE70CEAD15392EA0C0F18BF93EAE4
:100490000C0F0AD030F0004C18BF31F0004CD8D10E
:1004A00080EA010000F00040704790F0000F17BF95
:1004B00090F0004F084691F0000F91F0004F14D0DB
:1004C00092EA0C0F01D142020FD193EA0C0F03D133
:1004D0004B0218BF084608D180EA010000F0004036
:1004E00040F0FE4040F40000704740F0FE4040F411
:1004F000400070474FF0FF0C1CEAD0521EBF1CEAB0
:10050000D15392EA0C0F93EA0C0F69D0A2EB0302CD
:1005100080EA010C49024FEA402037D04FF0805367
:1005200043EA111143EA10130CF000408B4238BF2C
:100530005B0042F17D024FF4000C8B4224BF5B1A3A
:1005400040EA0C00B3EB510F24BFA3EB510340EA88
:100550005C00B3EB910F24BFA3EB910340EA9C0036
:10056000B3EBD10F24BFA3EBD10340EADC001B01A6
:1005700018BF5FEA1C1CE0D1FD2A3FF650AF8B424A
:1005800040EBC25008BF20F0010070470CF0004C57
:100590004CEA50207F32C2BFD2F1FF0340EAC25082
:1005A000704740F400004FF00003013A37E792F043
:1005B000000F00F0004C02BF400010F4000F013AA1
:1005C000F9D040EA0C0093F0000F01F0004C02BF9C
:1005D000490011F4000F013BF9D041EA0C0195E705
:1005E0000CEAD15392EA0C0F08D142027FF47DAF9E
:1005F00093EA0C0F7FF470AF084676E793EA0C0F8E
:1006000004D14B023FF44CAF08466EE730F0004C8B
:1006100018BF31F0004CCAD130F000427FF45CAF1B
:1006200031F000437FF43CAF5FE700BF42000ED2E1
:10063000B2F1FE4F0BD34FF09E03B3EB126209D41D
:100640004FEA002343F0004323FA02F070474FF0D3
:100650000000704712F1610F01D1420202D14FF048
:10066000FF3070474FF00000704700BF80B485B086
:1006700000AF3B600346FB710B46BB7113467B71B9
:10068000FB799B08FB73FB7903F00303DBB29B0050
:10069000BB73404AFB7B023352F82320BB7B0F2104
:1006A00001FA03F3DB4318463A49FB7B024002336D
:1006B00041F82320374AFB7B023352F82320B979D3
:1006C000BB7B01FA03F318463249FB7B024302333A
:1006D00041F823207B79022B32D0022B45DC002B02
:1006E00002D0012B16D040E02B4B9B68FA790121F8
:1006F00001FA02F21146284A0B439360264BDB684D
:10070000FA79012101FA02F2D2431146224A0B4042
:10071000D3602AE0204BDB68FA79012101FA02F26A
:1007200011461D4A0B43D3601B4B9B68FA7901218C
:1007300001FA02F2D2431146174A0B40936014E0CB
:10074000154B9B68FA79012101FA02F21146124A0F
:100750000B439360104BDB68FA79012101FA02F236
:1007600011460D4A0B43D36000BFFB790B493A6831
:1007700041F82320084B1B68FA79012101FA02F2A3
:100780001146054A0B43136000BF1437BD4680BCB9
:10079000704700BF00000140000401401C0400201D
:1007A00080B582B000AF084B1B689847074B5B6968
:1007B0007B60064B5B69054A43F00103536100BF50
:1007C0000837BD4680BD00BF1C0400200004014066
:1007D00080B500AF074B1B68002B02D0054B5B6850
:1007E0009847054B5B69044A43F00203536100BF1D
:1007F00080BD00BF1C0400200004014080B500AF94
:10080000074B5B68002B02D0054B9B689847054B54
:100810005B69044A43F00403536100BF80BD00BF1D
:100820001C0400200004014080B500AF074B9B680A
:10083000002B02D0054BDB689847054B5B69044AE7
:1008400043F00803536100BF80BD00BF1C040020BB
:100850000004014080B483B000AF0346FB710B4637
:10086000BB7113467B71FB79022B7AD0022B00F30C
:10087000B180002B02D0012B3AD0ABE0BB79072B23
:1008800017D85A4B1B68BA7992000F2101FA02F26D
:10089000D2431146554A0B401360544B1B6879797B
:1008A000BA79920001FA02F21146504A0B431360E2
:1008B00092E0BB790F2B00F28F80BB79083BBB71B4
:1008C0004B4B1B68BA7992000F2101FA02F2D24316
:1008D0001146474A0B401360454B1B687979BA793A
:1008E000920001FA02F21146414A0B43136073E091
:1008F000BB79072B17D83F4B1B68BA7992000F21A1
:1009000001FA02F2D24311463A4A0B401360394BC6
:100910001B687979BA79920001FA02F21146354AD8
:100920000B4313605AE0BB790F2B57D8BB79083BB8
:10093000BB71314B1B68BA7992000F2101FA02F2A8
:10094000D24311462C4A0B4013602B4B1B6879791C
:10095000BA79920001FA02F21146274A0B4313605A
:100960003CE0BB79072B17D8244B1B68BA7992005F
:100970000F2101FA02F2D2431146204A0B401360C4
:100980001E4B1B687979BA79920001FA02F211467E
:100990001A4A0B43136023E0BB790F2B20D8BB7995
:1009A000083BBB71164B1B68BA7992000F2101FA04
:1009B00002F2D2431146124A0B401360104B1B68DF
:1009C0007979BA79920001FA02F211460C4A0B4386
:1009D000136005E000BF04E000BF02E000BF00E0DC
:1009E00000BF00BF0C37BD4680BC70470008014007
:1009F00004080140000C0140040C014000100140BB
:100A00000410014080B483B000AF0346FB710B4675
:100A1000BB7113467B71FB79022B2AD0022B3ADC87
:100A2000002B02D0012B12D035E07B79012B05D1B0
:100A3000BB7901229A401E4B1A602EE07B79002B75
:100A40002BD1BB7901229A401A4B1A6025E07B79A1
:100A5000012B05D1BB7901229A40174B1A601EE089
:100A60007B79002B1BD1BB7901229A40134B1A6072
:100A700015E07B79012B05D1BB7901229A40104BFF
:100A80001A600EE07B79002B0BD1BB7901229A40D2
:100A90000C4B1A6005E000BF04E000BF02E000BF9D
:100AA00000E000BF00BF0C37BD4680BC704700BFF0
:100AB0001008014014080140100C0140140C0140C2
:100AC000101001401410014080B400AF034B044AE1
:100AD0001A6000BFBD4680BC704700BF0CED00E04F
:100AE0000003FA0580B483B000AF0346FB71FB79C5
:100AF00003F01F03012202FA03F1054AFB795B09A7
:100B0000DBB242F8231000BF0C37BD4680BC7047F3
:100B100000E100E080B485B000AF0346FB710B46F6
:100B2000BB7113467B71BA796FF00303012101FA9F
:100B300003F39A421DDA7B79002B1AD1BA797B79BB
:100B40001343FB730D4AFB79134493F80033DBB274
:100B50005BB203F00F035AB2FB7B1B015BB2134382
:100B600059B2064AFB79C9B213440A4683F80023F6
:100B700000E000BF1437BD4680BC704700E100E0D4
:100B800080B400AF094B1B68084A43F001031360AF
:100B9000074B1B68064A23F003031360044B044A07
:100BA0001B68136000BFBD4680BC70470010024048
:100BB0000410024080B483B000AF03460A46FB71C4
:100BC0001346BB71FB79022B1CD0022B25DC002BBA
:100BD00002D0012B0BD020E0124B1B68BA79012107
:100BE00001FA02F211460F4A0B43136015E00E4B57
:100BF0001B68BA79012101FA02F211460A4A0B4335
:100C000013600AE0094B1B68BA79012101FA02F26C
:100C10001146064A0B43136000BF00BF0C37BD46A8
:100C200080BC7047141002401C1002401810024093
:100C300080B500AF184B1B68174A43F004031360DC
:100C4000012204210020FFF705FE092207210020D0
:100C5000FFF700FE042206210020FFF7FBFD09221A
:100C600005210020FFF7F6FD0B4B0B4A1B681360B4
:100C7000094B094A1B681360074B074A1B6813603E
:100C8000054B054A1B681360034B1B68024A43F07F
:100C90004003136000BF80BD0030014080B483B0CA
:100CA00000AF0346FB7100BF064B9B6803F00203D5
:100CB000002BF9D0034AFB79D36000BF0C37BD4647
:100CC00080BC70470030014080B584B000AF7860D0
:100CD0003960194A3B68B2FBF3F31846FFF7FEFA96
:100CE0000346FB607868FFF7F9FA0346F96818468F
:100CF000FFF74CFB03461846FFF798FC0346BB6022
:100D00000E4ABB6823F07F4353600C4B1B680B4AB1
:100D100043F00103136000BF084B1B6803F48033EA
:100D2000002BF9D0054B1B68044A23F00103136024
:100D300000BF1037BD4680BD40420F0010E000E00C
:100D400080B582B000AF0A4B1B689847094B1B68FF
:100D50007B60094B1B78002B05D1064B1B68054AAD
:100D600023F00103136000BF0837BD4680BD00BFFC
:100D70005C04002010E000E06004002080B487B034
:100D800000AFF860B9607A60134AFB681360124ADA
:100D9000BB685360114A7B68136500237B6110E0D8
:100DA0007B690133FA68D21A0C497B6941F8232028
:100DB0000A497B690A33BA6841F823207B69013309
:100DC0007B61064B1B6D7A699A42E9DB00BF00BF6D
:100DD0001C37BD4680BC7047640400206C040020B2
:100DE00080B485B000AFF860B9601346FB71074A64
:100DF000FB681360054ABB685360044AFB791372B1
:100E000000BF1437BD4680BC704700BFC00400203F
:100E100080B400AF254B1B7A013B032B22D801A2E3
:100E200052F823F0410E0008350E00084D0E000860
:100E3000590E00081D4B1B6801331C4A136012E059
:100E40001A4B1B68013B194A13600CE0174B5B6897
:100E5000013B164A536006E0144B5B680133134AAA
:100E6000536000E000BF114B1B68072B03DD0F4BE5
:100E700000221A6006E00D4B1B68002B02DA0B4BB8
:100E800007221A60094B5B68082B03DD074B002221
:100E90005A6006E0054B5B68002B02DA034B082220
:100EA0005A6000BFBD4680BC704700BFC004002030
:100EB00080B588B000AF0346FB71474B1B68FB61F0
:100EC000454B5B68BB61FB79013B032B22D801A238
:100ED00052F823F0E50E0008F10E0008FD0E0008A0
:100EE000090F00083C4B1B68013B3B4A136012E0B2
:100EF000394B1B680133384A13600CE0364B5B6892
:100F0000013B354A536006E0334B5B680133324A9C
:100F1000536000E000BF00237B611CE02F4A7B6927
:100F200052F823303B612D4A7B690A3352F8233053
:100F3000FB602A497B69FA6941F8232027497B69CC
:100F40000A33BA6941F823203B69FB61FB68BB6146
:100F50007B6901337B61214B1B6D7A699A42DDDB32
:100F60001D4B1B68072B03DD1B4B00221A6006E09C
:100F7000194B1B68002B02DA174B07221A60164B1D
:100F80005B68082B03DD144B00225A6006E0124B0D
:100F90005B68002B02DA104B08225A600E4B1A686D
:100FA0000F4B1B689A4212D10B4B5A680C4B5B6873
:100FB0009A420CD1094B1B6D0133084A1365FFF7A8
:100FC00027FF084B1B780A33DAB2064B1A7000BFB2
:100FD0002037BD4680BD00BF640400206C040020A3
:100FE000C00400206104002080B584B000AF01235C
:100FF000FB60A5E00123BB609BE0564B5B68FA6891
:101000009A4219D1534B1B68BA689A4214D1514B7A
:101010001B68DBB24F4A5268D1B21F22184600F05B
:10102000A1F84D49FA681346DB001344CA18BB689F
:10103000134401221A7079E0484B5B68FA689A42BF
:101040001AD1464B1B68BA689A4215D1434B1B68AC
:10105000DBB2424A5268D1B247F6EF32184600F08E
:1010600081F83D49FA681346DB001344CA18BB688F
:10107000134401221A7059E000237B6000233B6077
:101080002EE0374A3B680A3352F82330FA689A4216
:1010900023D1334A3B6852F82330BA689A421CD1B4
:1010A0002F4A3B6852F82330D8B22D4A3B680A33A6
:1010B00052F82330DBB24FF4FC62194600F052F8CC
:1010C00001237B602449FA681346DB001344CA18E5
:1010D000BB68134401221A7007E03B6801333B6090
:1010E0001F4B1B6D3A689A42CBDB7B68002B1DD1EE
:1010F0001949FA681346DB001344CA18BB68134445
:101100001B78012B12D1BB68DBB2FA68D1B24FF663
:10111000FF72184600F026F80F49FA681346DB0004
:101120001344CA18BB68134400221A70BB68013309
:10113000BB60BB68082B7FF760AFFB680133FB60C7
:10114000FB68092B7FF756AF00BF00BF1037BD46C5
:1011500080BD00BF64040020CC040020C004002037
:101160006C04002090B587B002AF0346FB710B46BC
:10117000BB711346BB80FB791B01FB73FB7B103BF0
:10118000BB73BB791B017B737B7B103B3B737C7B0D
:101190003A7BF97BB87BBB880093234600F0C0F80C
:1011A00000BF1437BD4690BD80B400AF034B03228F
:1011B0001A7000BFBD4680BC704700BF62040020AB
:1011C00080B400AF034B04221A7000BFBD4680BC40
:1011D000704700BF6204002080B400AF034B0122BF
:1011E0001A7000BFBD4680BC704700BF620400207B
:1011F00080B400AF034B02221A7000BFBD4680BC12
:10120000704700BF6204002080B582B000AF034683
:101210003960FB71FB79063BDBB2012219460020E5
:10122000FFF718FBFB791846FFF75CFCFB79063BE0
:10123000D9B2FB7900221846FFF76CFCFB79063B1C
:10124000D8B23B6800220021FFF710FA00BF083730
:10125000BD4680BD80B500AFFFF792FC02210220A1
:10126000FFF7A8FC0C210220FFF7A4FC02220B21AF
:101270000020FFF7EFFA02220A210020FFF7EAFA26
:10128000092205210020FFF7E5FA092207210020A5
:10129000FFF7E0FAFFF7CCFC01220A210020FFF75C
:1012A000B1FB1E496420FFF70FFD00220A21002038
:1012B000FFF7A8FB19490120FFF706FD01220A21CB
:1012C0000020FFF79FFB15496420FFF7FDFC00227B
:1012D0000A210020FFF796FB10496420FFF7F4FC79
:1012E00001220A210020FFF78DFB4FF47A7178204C
:1012F000FFF7EAFC112000F021F94FF47A719620F3
:10130000FFF7E2FC3A2000F019F9052000F028F977
:10131000292000F013F900BF80BD00BF40420F003C
:1013200090B585B000AF0446084611461A462346DC
:10133000FB710346BB710B467B7113463B71BA7957
:10134000FB79D31A9BB239797A798A1A92B202FB65
:1013500003F3BB812A2000F0F1F8002000F000F92F
:10136000FB79184600F0FCF8002000F0F9F8BB7992
:10137000013BDBB2184600F0F3F82B2000F0DEF85A
:10138000002000F0EDF87B79184600F0E9F8002025
:1013900000F0E6F83B79013BDBB2184600F0E0F8DC
:1013A0002C2000F0CBF80023FB8110E03B8C1B0AC3
:1013B0009BB2FB72FB7A184600F0D2F83B8CFB72B2
:1013C000FB7A184600F0CCF8FB890133FB81FA89DF
:1013D000BB899A42EAD300BF00BF1437BD4690BD17
:1013E00080B584B000AF3A601A460346FB710B46E5
:1013F000BB711346BB802A2000F0A0F8002000F04B
:10140000AFF8FB79184600F0ABF8002000F0A8F820
:10141000FB790733DBB2184600F0A2F82B2000F06E
:101420008DF8002000F09CF8BB79184600F098F881
:10143000002000F095F8BB790733DBB2184600F0C6
:101440008FF82C2000F07AF80023FB733BE0002398
:10145000BB732EE097F90F303A6813441B781A4695
:1014600097F90E3042FA03F303F00103002B0CD17D
:10147000FF237B737B7B184600F072F8FF237B739E
:101480007B7B184600F06CF80DE0BB881B0A9BB212
:101490007B737B7B184600F063F8BB887B737B7B98
:1014A000184600F05DF897F90E30DBB20133DBB27D
:1014B000BB7397F90E30072BCCDD97F90F30DBB2F9
:1014C0000133DBB2FB7397F90F30072BBFDD00BF91
:1014D00000BF1037BD4680BD80B584B000AF3A6014
:1014E0001A460346FB710B46BB711346BB800023B3
:1014F000FB730023BB7314E0FA79BB7B1344D8B2AF
:10150000FB7B3A6813441B78DB000B4A1A44BB8808
:10151000B979FFF765FFFB7B0133FB73BB7B0A33B4
:10152000BB73FB7B3A6813441B78002BE4D100BFEC
:1015300000BF1037BD4680BD0000002080B582B0DE
:1015400000AF0346FB7100220B210020FFF75AFA7F
:10155000FB791846FFF7A2FB00BF0837BD4680BDE8
:1015600080B582B000AF0346FB7101220B21002041
:10157000FFF748FAFB791846FFF790FB00BF0837E2
:10158000BD4680BD80B584B000AFFFF763FE012388
:10159000FB600123BB6000237B607A68B968F86850
:1015A000FFF7ECFB042202210220FFF719FCFFF7F2
:1015B0008BFA0F490620FFF727FE0E490720FFF799
:1015C00023FE0D490820FFF71FFE0C490920FFF7F5
:1015D0001BFE00230A4A96211020FFF77DFFFFF72C
:1015E00003FD084B1B781846FFF762FCF7E700BFC6
:1015F000A9110008D9110008C1110008F111000853
:10160000BC160008620400200D488546AFF3008038
:101610000C480D490D4A002302E0D458C45004334D
:10162000C4188C42F9D30A4A0A4C002301E0136023
:101630000432A242FBD300F011F8FFF7A3FFFEE74C
:10164000005000200000002000040020D0160008F8
:101650000004002028050020FEE7000070B50026E9
:101660000C4D0D4C641BA410A64209D100F01AF8D1
:1016700000260A4D0A4C641BA410A64205D170BD79
:1016800055F8043B98470136EEE755F8043B984778
:101690000136F2E7C8160008C8160008C816000888
:1016A000CC160008F8B500BFF8BC08BC9E467047D1
:0C16B000F8B500BFF8BC08BC9E467047AF
:0C16BC00536E616B652047616D65000096
:0416C80055010008C0
:0416CC0031010008E0
:1016D000000000000000000000000000000000000A
:1016E00000000000000000000000000000000000FA
:1016F00000000000000000000000000000000000EA
:1017000000000000000000000000000000000000D9
:1017100000000000000000000000000000000000C9
:1017200000000000000000000000000000000000B9
:1017300000000000000000000000000000000000A9
:101740000000000000000000000000000000000099
:101750000000000000000000000000000000000089
:101760000000000000000000000000000000000079
:101770000000000000000000000000000000000069
:101780000000000000000000000000000000000059
:101790000000000000000000000000000000000049
:1017A0000000000000000000000000000000000039
:1017B0000000000000000000000000000000000029
:1017C0000000000000000000000000000000000019
:1017D0000000000000000000183C3C181800180031
:1017E000363600000000000036367F367F36360081
:1017F0000C3E031E301F0C00006333180C666300A0
:101800001C361C6E3B336E00060603000000000011
:10181000180C0606060C1800060C1818180C060002
:1018200000663CFF3C660000000C0C3F0C0C000006
:1018300000000000000C0C060000003F000000004B
:1018400000000000000C0C006030180C06030100C2
:101850003E63737B6F673E000C0E0C0C0C0C3F005C
:101860001E33301C06333F001E33301C30331E0045
:10187000383C36337F3078003F031F3030331E0052
:101880001C06031F33331E003F3330180C0C0C00B2
:101890001E33331E33331E001E33333E30180E000A
:1018A000000C0C00000C0C00000C0C00000C0C06D2
:1018B000180C0603060C180000003F00003F000053
:1018C000060C1830180C06001E3330180C000C00E3
:1018D0003E637B7B7B031E000C1E33333F333300A0
:1018E0003F66663E66663F003C66030303663C0057
:1018F0001F36666666361F007F46161E16467F0038
:101900007F46161E16060F003C66030373667C00B6
:101910003333333F333333001E0C0C0C0C0C1E00DE
:101920007830303033331E006766361E3666670007
:101930000F06060646667F0063777F7F6B63630052
:1019400063676F7B736363001C36636363361C00DD
:101950003F66663E06060F001E3333333B1E3800DB
:101960003F66663E366667001E33070E38331E003C
:101970003F2D0C0C0C0C1E003333333333333F003C
:1019800033333333331E0C006363636B7F77630041
:101990006363361C1C3663003333331E0C0C1E008D
:1019A0007F6331184C667F001E06060606061E0081
:1019B00003060C18306040001E18181818181E0076
:1019C000081C36630000000000000000000000FF5B
:1019D0000C0C18000000000000001E303E336E00AA
:1019E0000706063E66663B0000001E3303331E00FA
:1019F0003830303E33336E0000001E333F031E008C
:101A00001C36060F06060F0000006E33333E301FF3
:101A10000706366E666667000C000E0C0C0C1E0086
:101A2000300030303033331E070666361E3667000E
:101A30000E0C0C0C0C0C1E000000337F7F6B63003F
:101A400000001F333333330000001E3333331E00D6
:101A500000003B66663E060F00006E33333E307872
:101A600000003B6E66060F0000003E031E301F00A4
:101A7000080C3E0C0C2C18000000333333336E007E
:101A800000003333331E0C000000636B7F7F360091
:101A9000000063361C36630000003333333E301FD2
:101AA00000003F190C263F00380C0C070C0C3800C6
:101AB0001818180018181800070C0C380C0C070020
:101AC0006E3B00000000000000000000000000006D
:0400000508001609D0
:00000001FF
